{
  "contractName": "DecentralBank",
  "abi": [
    {
      "inputs": [
        {
          "internalType": "contract RWD",
          "name": "_rwd",
          "type": "address"
        },
        {
          "internalType": "contract Teather",
          "name": "_teather",
          "type": "address"
        }
      ],
      "stateMutability": "nonpayable",
      "type": "constructor"
    },
    {
      "inputs": [],
      "name": "name",
      "outputs": [
        {
          "internalType": "string",
          "name": "",
          "type": "string"
        }
      ],
      "stateMutability": "view",
      "type": "function",
      "constant": true
    },
    {
      "inputs": [],
      "name": "owner",
      "outputs": [
        {
          "internalType": "address",
          "name": "",
          "type": "address"
        }
      ],
      "stateMutability": "view",
      "type": "function",
      "constant": true
    },
    {
      "inputs": [],
      "name": "rwd",
      "outputs": [
        {
          "internalType": "contract RWD",
          "name": "",
          "type": "address"
        }
      ],
      "stateMutability": "view",
      "type": "function",
      "constant": true
    },
    {
      "inputs": [],
      "name": "teather",
      "outputs": [
        {
          "internalType": "contract Teather",
          "name": "",
          "type": "address"
        }
      ],
      "stateMutability": "view",
      "type": "function",
      "constant": true
    }
  ],
  "bytecode": "0x60806040526040518060400160405280600e81526020017f446563656e7472616c2042616e6b0000000000000000000000000000000000008152506000908051906020019061004f929190610085565b5034801561005c57600080fd5b506040516106b63803806106b6833981810160405281019061007e91906101db565b505061027b565b8280546100919061024a565b90600052602060002090601f0160209004810192826100b357600085556100fa565b82601f106100cc57805160ff19168380011785556100fa565b828001600101855582156100fa579182015b828111156100f95782518255916020019190600101906100de565b5b509050610107919061010b565b5090565b5b8082111561012457600081600090555060010161010c565b5090565b600080fd5b600073ffffffffffffffffffffffffffffffffffffffff82169050919050565b60006101588261012d565b9050919050565b600061016a8261014d565b9050919050565b61017a8161015f565b811461018557600080fd5b50565b60008151905061019781610171565b92915050565b60006101a88261014d565b9050919050565b6101b88161019d565b81146101c357600080fd5b50565b6000815190506101d5816101af565b92915050565b600080604083850312156101f2576101f1610128565b5b600061020085828601610188565b9250506020610211858286016101c6565b9150509250929050565b7f4e487b7100000000000000000000000000000000000000000000000000000000600052602260045260246000fd5b6000600282049050600182168061026257607f821691505b6020821081036102755761027461021b565b5b50919050565b61042c8061028a6000396000f3fe608060405234801561001057600080fd5b506004361061004c5760003560e01c806306fdde03146100515780631a8972d31461006f5780638da5cb5b1461008d578063ac55ed62146100ab575b600080fd5b6100596100c9565b6040516100669190610262565b60405180910390f35b610077610157565b6040516100849190610303565b60405180910390f35b61009561017d565b6040516100a2919061033f565b60405180910390f35b6100b36101a3565b6040516100c0919061037b565b60405180910390f35b600080546100d6906103c5565b80601f0160208091040260200160405190810160405280929190818152602001828054610102906103c5565b801561014f5780601f106101245761010080835404028352916020019161014f565b820191906000526020600020905b81548152906001019060200180831161013257829003601f168201915b505050505081565b600360009054906101000a900473ffffffffffffffffffffffffffffffffffffffff1681565b600160009054906101000a900473ffffffffffffffffffffffffffffffffffffffff1681565b600260009054906101000a900473ffffffffffffffffffffffffffffffffffffffff1681565b600081519050919050565b600082825260208201905092915050565b60005b838110156102035780820151818401526020810190506101e8565b83811115610212576000848401525b50505050565b6000601f19601f8301169050919050565b6000610234826101c9565b61023e81856101d4565b935061024e8185602086016101e5565b61025781610218565b840191505092915050565b6000602082019050818103600083015261027c8184610229565b905092915050565b600073ffffffffffffffffffffffffffffffffffffffff82169050919050565b6000819050919050565b60006102c96102c46102bf84610284565b6102a4565b610284565b9050919050565b60006102db826102ae565b9050919050565b60006102ed826102d0565b9050919050565b6102fd816102e2565b82525050565b600060208201905061031860008301846102f4565b92915050565b600061032982610284565b9050919050565b6103398161031e565b82525050565b60006020820190506103546000830184610330565b92915050565b6000610365826102d0565b9050919050565b6103758161035a565b82525050565b6000602082019050610390600083018461036c565b92915050565b7f4e487b7100000000000000000000000000000000000000000000000000000000600052602260045260246000fd5b600060028204905060018216806103dd57607f821691505b6020821081036103f0576103ef610396565b5b5091905056fea2646970667358221220c6f4d234903b19c70779d359aaf9e1b7b3d5e984fbd1660fb633f767821f7e9c64736f6c634300080d0033",
  "immutableReferences": {},
  "source": "// SPDX-License-Identifier: MIT\r\npragma solidity >=0.4.22 <0.9.0;\r\n\r\nimport './RWD.sol';\r\nimport './Tether.sol';\r\n\r\ncontract DecentralBank {\r\n    string public name = 'Decentral Bank';\r\n    address public owner;\r\n    Teather public teather;\r\n    RWD public rwd;\r\n\r\n    constructor(RWD _rwd, Teather _teather){}\r\n}",
  "sourcePath": "C:\\Users\\Torakami\\Documents\\GitHub\\defi-staking\\src\\contracts\\DecentralBank.sol",
  "compiler": {
    "name": "solc",
    "version": "0.8.13+commit.abaa5c0e.Emscripten.clang"
  },
  "schemaVersion": "3.4.6",
  "updatedAt": "2022-05-16T02:08:34.791Z",
  "networkType": "ethereum",
  "devdoc": {
    "kind": "dev",
    "methods": {},
    "version": 1
  },
  "userdoc": {
    "kind": "user",
    "methods": {},
    "version": 1
  }
}